:020000040000FA
:1000000000008A110A12A22A83120313B3007F0888
:10001000B2007E08B4007D08B5007C08B8007B08FB
:10002000B7007A08B600B90134080C3A0319B90AC6
:1000300083120313051C1E288518CA280C308A1544
:100040000A1257208A110A1283120313051857281F
:10005000831203133608FE003708FF0038088A11A0
:100060000A1238268A110A1283120313BA00BA0A36
:100070003A08FD003608FE003708FF0038088A11EC
:100080000A120B268A110A12831203133A0832024B
:10009000031898283308FD003608FE003708FF00D3
:1000A00038088A110A120B268A110A12982883121C
:1000B00003133608FE003708FF0038088A110A12B9
:1000C00038268A110A1283120313BA00BA033A08B7
:1000D000FD003608FE003708FF0038088A110A12B2
:1000E0000B268A110A12831203133608FE00370802
:1000F000FF0038088A110A1238268A110A12831260
:100100000313BB0033083A02031C8A283B08FF3A5A
:10011000031D9828831203133208FD003608FE00E1
:100120003708FF0038088A110A120B268A110A12B2
:10013000831203133508FF0034088A150A120020C1
:100140008A110A128312031339080319AD288A1180
:100150000A12FA218A110A12C128831203133608DF
:10016000FE003708FF0038088A110A1238268A1163
:100170000A1283120313BA008A110A1244278A1141
:100180000A12F430FF0001308A110A1298278A11EE
:100190000A121828831203130519FC28831203136B
:1001A000E00A831203130519DE280A30FF0000302D
:1001B0008A110A1298278A110A12D128831203136E
:1001C0003608FE003708FF0038088A110A12382660
:1001D0008A110A1283120313B30032020318FC2897
:1001E0003208FD003608FE003708FF0038088A1183
:1001F0000A120B268A110A120030831203133904E3
:10020000031DB40AB40A3508FF0034088A150A121F
:1002100000208A110A120E308A150A1257208A11FC
:100220000A1208000130FF0007308A150A12002068
:100230008A110A1200308A110A1244278A110A12FE
:100240000E308A150A1257208A110A1283120313DC
:10025000DF0107308312031360020318F3298312AE
:1002600003136008013A031D4F2900308312031362
:10027000BD005C30BC00BE013C08FA003D08FB003C
:100280000030FC000030FD000730FE006330FF004E
:1002900000308A110A1204208A110A122F298312AF
:1002A00003136008023A031D6F2900308312031301
:1002B000BD005B30BC00BE013C08FA003D08FB00FD
:1002C0000030FC000030FD000430FE000C30FF0068
:1002D00001308A110A1204208A110A124F2983124E
:1002E00003136008033A031D93298A110A12832617
:1002F0008A110A1283120313BC000030BE005A3068
:10030000BD00FA003E08FB000030FC000030FD009C
:100310000130FE003C08FF0001308A110A1204205F
:100320008A110A126F29831203136008043A031D0D
:10033000B329003083120313BD005D30BC00BE0141
:100340003C08FA003D08FB000030FC000130FD00D5
:100350000130FE001730FF0000308A110A1204201D
:100360008A110A129329831203136008053A031DA8
:10037000D329003083120313BD005E30BC00BE01E0
:100380003C08FA003D08FB000030FC000130FD0095
:100390000430FE003B30FF0000308A110A120420B6
:1003A0008A110A12B329831203136008063A031D47
:1003B0002929003083120313BD005930BC00BE014F
:1003C0003C08FA003D08FB000030FC000030FD0056
:1003D0000C30FE000730FF0001308A110A120420A1
:1003E0008A110A12D3290C308A150A1257208A1151
:1003F0000A1208000130831203135902031CA12AB8
:10040000083059020318A12A590383120313AF00BD
:100410000230831203138A001630831203132F074E
:10042000031C152A831203138A0A82001D2A302A0C
:10043000432A562A692A7C2A8F2A073083120313FB
:10044000B000FB30AF008030B1002F08FE00300854
:10045000FF0031088A110A1270278A110A12A12A94
:10046000083083120313B0008D30AF008030B1002C
:100470002F08FE003008FF0031088A110A12702789
:100480008A110A12A12A083083120313B000913096
:10049000AF008030B1002F08FE003008FF003108A7
:1004A0008A110A1270278A110A12A12A08308312AF
:1004B0000313B0009530AF008030B1002F08FE006C
:1004C0003008FF0031088A110A1270278A110A12B7
:1004D000A12A083083120313B0009930AF00803096
:1004E000B1002F08FE003008FF0031088A110A12FF
:1004F00070278A110A12A12A083083120313B00050
:100500009D30AF008030B1002F08FE003008FF00A2
:1005100031088A110A1270278A110A12A12A08309A
:1005200083120313B000A130AF008030B1002F0858
:10053000FE003008FF0031088A110A1270278A1164
:100540000A1208007F30FE000830FF0080308A1158
:100550000A1217268A110A1283120313C0007F0899
:10056000BF008130C1000830C200831203133F086E
:10057000C3004008C400FF30BF07031CC00343088A
:10058000440403193A2B04304107C300C401C40DCD
:100590004208C4074308FE004408FF0080308A1167
:1005A0000A1217268A110A1283120313C6007F0843
:1005B000C5004108FE004208FF0080308A110A127F
:1005C00017268A110A1283120313C800C4007F0879
:1005D000C700C30002304107C300C401C40D420874
:1005E000C4074308FE004408FF0080308A110A1245
:1005F00017268A110A1283120313C400CA007F0847
:10060000C300C900831203134508C9004608CA0085
:10061000FF30C507031CC60349084A040319332BDE
:100620004708FE004808FF0080308A110A12382669
:100630008A110A1283120313C90043088312031399
:100640008400831383120313441883174908831209
:100650000313800083120313C70A0319C80AC30ACD
:100660000319C40A022B063083120313C1070318AF
:10067000C20AB52A8A110A124B2E08008A150A12DC
:1006800066208A110A12D0308A110A1284258A1132
:100690000A1200308A110A1284258A110A128A1558
:1006A0000A1266208A110A12D1308A110A12842590
:1006B0008A110A1201308A110A12CB258A110A12F4
:1006C00083120313A4008A150A121C208A110A122D
:1006D00083120313DF0001308A110A12CB258A111D
:1006E0000A1283120313A4008A150A121C208A110D
:1006F0000A1283120313DE0001308A110A12CB257D
:100700008A110A1283120313A4008A150A121C20EC
:100710008A110A1283120313DD0001308A110A12B2
:10072000CB258A110A1283120313D90001308A11D2
:100730000A12CB258A110A1283120313A4008A1508
:100740000A121C208A110A1283120313DA000130E4
:100750008A110A12CB258A110A1283120313A400EC
:100760008A150A121C208A110A1283120313DB0055
:1007700000308A110A12CB258A110A128312031340
:10078000A4008A150A121C208A110A12831203136C
:10079000DC008A150A1287208A110A1208008A15BD
:1007A0000A1266208A110A12D0308A110A12842590
:1007B0008A110A1200308A110A1284258A110A123B
:1007C000831203135F088A110A12BE278A110A12C4
:1007D00083120313A4008A110A1284258A110A12B3
:1007E000831203135E088A110A12BE278A110A12A5
:1007F00083120313A4008A110A1284258A110A1293
:10080000831203135D088A110A12BE278A110A1285
:1008100083120313A4008A110A1284258A110A1272
:100820008312031359088A110A1284258A110A12A5
:10083000831203135A088A110A12BE278A110A1258
:1008400083120313A4008A110A1284258A110A1242
:10085000831203135B088A110A12BE278A110A1237
:1008600083120313A4008A110A1284258A110A1222
:10087000831203135C088A110A12BE278A110A1216
:1008800083120313A4008A110A1284258A110A1202
:100890008A150A1287208A110A1208000030FF0008
:1008A00001308A150A1200208A110A1283120313DA
:1008B0005A088A110A1244278A110A122F308A15FF
:1008C0000A1248208A110A12831203135B088A1144
:1008D0000A1244278A110A122F308A150A12482058
:1008E0008A110A12831203135C088A110A12442720
:1008F0008A110A12083083120313B300A530B20024
:100900008030B4003208FE003308FF0034088A113A
:100910000A1270278A110A128A110A12FA218A1100
:100920000A120130FF0001308A150A1200208A11D4
:100930000A12831203135D088A110A1244278A11CE
:100940000A123A308A150A1248208A110A128312B2
:1009500003135E088A110A1244278A110A123A30D8
:100960008A150A1248208A110A12831203135F089B
:100970008A110A1244278A110A12080083160313E7
:10098000061286120613861306118611C830FF0060
:1009900000308A110A1298278A110A12831203134F
:1009A000061186111E30FF0000308A110A129827A6
:1009B0008A110A1230308A110A1221258A110A126C
:1009C0000530FF0000308A110A1298278A110A1296
:1009D00030308A110A1221258A110A120130FF00D3
:1009E00000308A110A1298278A110A1230308A11AF
:1009F0000A1221258A110A1220308A110A12212591
:100A00008A110A1228308A150A1257208A110A12EE
:100A100008308A150A1257208A110A1206308A15E0
:100A20000A1257208A110A120C308A150A1257200E
:100A30008A110A1201308A150A1257208A110A12E5
:100A4000080083120313A6001039031D0130A7000C
:100A5000A800280C03182F2D831203130612031C61
:100A6000342D83120313061683120313260820392C
:100A7000031D0130A700A800280C0318422D831283
:100A800003138612031C472D831203138616831249
:100A9000031326084039031D0130A700A800280CC5
:100AA0000318552D831203130613031C5A2D8312AA
:100AB000031306178312031326088039031D013020
:100AC000A700A600260C0318682D831203138613B3
:100AD000031C6D2D831203138617831203138615CF
:100AE0000130FF0000308A110A1298278A110A1279
:100AF0008312031386110130FF0000308A110A129D
:100B000098278A110A12080083120313A100A0017A
:100B10008312031321088039031D0130A300230C25
:100B20000318952D831203130610031C9A2D8312AC
:100B30000313061483120313861403108312031382
:100B4000A10D83120313861083120313A00A083029
:100B50002002031C882D831603130614831203132B
:100B6000861483120313A10183120313061CBB2DE9
:100B700083120313A10A83120313210803190130FE
:100B8000A00083120313861083160313061083122A
:100B900003132008080083120313A100A001831689
:100BA0000313061483120313A20183120313861482
:100BB000031083120313A00D83120313061CE32DED
:100BC000831203132014831203138610831203135A
:100BD000A20A08302202031CD52D83160313061027
:100BE000831203132108003003190130A200A10071
:100BF000210C0318FE2D831203130610031C032E71
:100C000083120313061483120313861486108312AF
:100C1000031320080800003A03190F2E08007E086D
:100C2000840083137F1883177D0880000800003A32
:100C300003191F2E803A0319292EFF0100347E0864
:100C4000840083137F1883170008FF00840A0008BC
:100C500008008A110A124626FD00FE0FFF03FF0A54
:100C60008A110A124626FC007D08FF007C08080055
:100C7000003A03193F2E803A0319462E00347E08AD
:100C8000840083137F188317000808007F088A00F8
:100C90007E08820008008A110A12E6268A110A12CA
:100CA0008312031305196F2E013083120313E00022
:100CB000831203130519652E0A30FF0000308A11D4
:100CC0000A1298278A110A12582E8A110A12122122
:100CD0008A110A128A110A12CF238A110A128A1162
:100CE0000A123E238A110A128A110A124E248A110C
:100CF0000A12831203138519792E8312031385199F
:100D0000502E7D2E0800831203135B08023A031D48
:100D10009F2E8A150A1273208A110A128312031356
:100D2000A20022080319972E1D30A2009B2E1C3012
:100D300083120313A200831203132208B42E83121A
:100D400003135B08043A0319B12E5B08063A031932
:100D5000B12E5B08093A0319B12E5B080B3A031D4B
:100D6000B32E1E30B42E1F30080083120313D000A0
:100D70007F08D100D2010130D3005108031DC22EDB
:100D8000FF30E52E831203135108D400D41BCD2E5F
:100D90000310D10D0310D30DC22E003083120313A4
:100DA00053040319E22E51085002031CDB2E530892
:100DB000D2075108D002031083120313D10C031081
:100DC000D30CCD2E8312031352080800073083166C
:100DD00003139F00831203139F018B1383160313C6
:100DE00005148514051585158A150A1266208A11C1
:100DF0000A12D0308A110A1284258A110A12073089
:100E00008A110A1284258A110A1290308A110A1254
:100E100084258A110A128A150A1287208A110A1259
:100E20008A110A12BE248A110A12080083120313BF
:100E3000D5007F08D6005608031D202FFF30432F12
:100E4000013083120313D700831203135608D8000E
:100E5000D81B2E2F0310D60DD70A242F0030831253
:100E6000031357040319402F56085502031C3A2F49
:100E70005608D502031083120313D60CD7032E2F66
:100E8000831203135508080083120313AB000A30C2
:100E9000FF002B088A110A12B5268A110A12831242
:100EA0000313AC003030AC072C088A150A12482016
:100EB0008A110A120A30FF00831203132B088A11C9
:100EC0000A1216278A110A1283120313AC0030305B
:100ED0002C07AB008A150A1248208A110A12080052
:100EE00083120313AB007F08AC007E08AD008312B1
:100EF00003132D08FE002C08FF002B088A110A128C
:100F000038268A110A1283120313AE002E08031921
:100F1000972F2E088A150A1248208A110A12831266
:100F20000313AD0A0319AC0A0319AB0A772F0800A3
:100F300083120313A1007F08A0008312031320086B
:100F4000A2002108A300FF30A007031CA103220870
:100F500023040319BD2F3D30A200A3018312031304
:100F60002208A4002308A500FF30A207031CA30346
:100F70002408250403199D2FAE2F080083120313A4
:100F8000A1000A30FF0021088A110A12B5268A1131
:100F90000A1283120313A000200EF039A2000A30B7
:100FA000FF0021088A110A1216278A110A128312D9
:100FB0000313A0002204A100080083120313CB0036
:100FC0007F08CC00CD010830CE00831203134B1CE8
:100FD000EB2F4C08CD07031083120313CB0C031027
:100FE0004C0DCF00CC004E03CF00CE004F08031DA8
:100FF000E52F4D08080044344F344D34003400349C
:1010000083120313AB007F08AC002C08031D1128CA
:1010100080302B07AC008A150A1257208A150A1255
:101020001B28C03083120313AB072B088A150A1242
:1010300057208A150A12080083120313A100F0300A
:101040002105A000200E0F39A2000A30FF0022085F
:101050008A110A12DD278A150A1283120313A000CF
:101060000F30A1052108A0072008080083120313F0
:10107000A9008A110A1221258A150A128312031364
:10108000290EF0398A110A1221258A150A12080040
:1010900083120313AA00831203130615831203138A
:1010A0002A088A150A1236208A150A1208008312A5
:1010B0000313AA00831203130611831203132A08D1
:1010C0008A150A1236208A150A12080083120313A1
:1010D0000614861483160313861006108312031356
:1010E0000610861008000330831203135C05831278
:1010F0000313A10021080030031901300800013456
:101100000034FF3407346134003401340034831276
:10111000031306108614061408004C3455344E345C
:1011200000344D344134523400344D344934453464
:1011300000344A3455344534003456344934453447
:1011400000345334413442340034203420342034C9
:02115000003469
:00000001FF
