:020000040000FA
:1000000000008A110A129F2A83120313B3007F088B
:10001000B2007E08B4007D08B5007C08B8007B08FB
:10002000B7007A08B600B90134080C3A0319B90AC6
:1000300083120313051C1E288518CA280C308A1544
:100040000A12DB208A110A1283120313051857289B
:10005000831203133608FE003708FF0038088A11A0
:100060000A1288268A110A1283120313BA00BA0AE6
:100070003A08FD003608FE003708FF0038088A11EC
:100080000A125B268A110A12831203133A083202FB
:10009000031898283308FD003608FE003708FF00D3
:1000A00038088A110A125B268A110A1298288312CC
:1000B00003133608FE003708FF0038088A110A12B9
:1000C00088268A110A1283120313BA00BA033A0867
:1000D000FD003608FE003708FF0038088A110A12B2
:1000E0005B268A110A12831203133608FE003708B2
:1000F000FF0038088A110A1288268A110A12831210
:100100000313BB0033083A02031C8A283B08FF3A5A
:10011000031D9828831203133208FD003608FE00E1
:100120003708FF0038088A110A125B268A110A1262
:10013000831203133508FF0034088A150A1284203D
:100140008A110A128312031339080319AD288A1180
:100150000A12F7218A110A12C128831203133608E2
:10016000FE003708FF0038088A110A1288268A1113
:100170000A1283120313BA008A110A1294278A11F1
:100180000A12F430FF0001308A150A1200208A1189
:100190000A121828831203130519FC28831203136B
:1001A000E00A831203130519DE280A30FF0000302D
:1001B0008A150A1200208A110A12D1288312031309
:1001C0003608FE003708FF0038088A110A12882610
:1001D0008A110A1283120313B30032020318FC2897
:1001E0003208FD003608FE003708FF0038088A1183
:1001F0000A125B268A110A12003083120313390493
:10020000031DB40AB40A3508FF0034088A150A121F
:1002100084208A110A120E308A150A12DB208A11F4
:100220000A1208000130FF0007308A150A128420E4
:100230008A110A1200308A110A1294278A110A12AE
:100240000E308A150A12DB208A110A120730831237
:10025000031360020318F029831203136008013AA4
:10026000031D4C29003083120313BD005C30BC0019
:10027000BE013C08FA003D08FB000030FC000030E5
:10028000FD000730FE006330FF0000308A110A12C3
:1002900004208A110A122C29831203136008023ADF
:1002A000031D6C29003083120313BD005B30BC00BA
:1002B000BE013C08FA003D08FB000030FC000030A5
:1002C000FD000430FE000C30FF0001308A110A12DC
:1002D00004208A110A124C29831203136008033A7E
:1002E000031D90298A110A12D3268A110A12831239
:1002F0000313BC000030BE005A30BD00FA003E08B7
:10030000FB000030FC000030FD000130FE003C0826
:10031000FF0001308A110A1204208A110A126C2986
:10032000831203136008043A031DB02900308312BE
:100330000313BD005D30BC00BE013C08FA003D085F
:10034000FB000030FC000130FD000130FE001730E2
:10035000FF0000308A110A1204208A110A12902923
:10036000831203136008053A031DD029003083125D
:100370000313BD005E30BC00BE013C08FA003D081E
:10038000FB000030FC000130FD000430FE003B307B
:10039000FF0000308A110A1204208A110A12B029C3
:1003A000831203136008063A031D262900308312C6
:1003B0000313BD005930BC00BE013C08FA003D08E3
:1003C000FB000030FC000030FD000C30FE00073068
:1003D000FF0001308A110A1204208A110A12D02962
:1003E0000C308A150A12DB208A110A12080001302B
:1003F000831203135902031C9E2A08305902031862
:100400009E2A590383120313AF0002308312031391
:100410008A001330831203132F07031C122A83123E
:1004200003138A0A82001A2A2D2A402A532A662A8E
:10043000792A8C2A093083120313B0000A30AF00E6
:100440008030B1002F08FE003008FF0031088A110B
:100450000A12C0278A110A129E2A09308312031336
:10046000B0000E30AF008030B1002F08FE00300821
:10047000FF0031088A110A12C0278A110A129E2A27
:10048000093083120313B0001230AF008030B10086
:100490002F08FE003008FF0031088A110A12C02719
:1004A0008A110A129E2A093083120313B0001630F3
:1004B000AF008030B1002F08FE003008FF00310887
:1004C0008A110A12C0278A110A129E2A0930831241
:1004D0000313B0001A30AF008030B1002F08FE00C7
:1004E0003008FF0031088A110A12C0278A110A1247
:1004F0009E2A093083120313B0001E30AF008030F3
:10050000B1002F08FE003008FF0031088A110A12DE
:10051000C0278A110A129E2A093083120313B000E1
:100520002230AF008030B1002F08FE003008FF00FD
:1005300031088A110A12C0278A110A1208000230F3
:10054000FE000930FF0080308A110A1267268A11E6
:100550000A1283120313C0007F08BF000430C100D9
:100560000930C200831203133F08C3004008C400CF
:10057000FF30BF07031CC003430844040319372B93
:1005800004304107C300C401C40D4208C407430836
:10059000FE004408FF0080308A110A1267268A1183
:1005A0000A1283120313C6007F08C5004108FE002B
:1005B0004208FF0080308A110A1267268A110A1247
:1005C00083120313C800C4007F08C700C3000230B1
:1005D0004107C300C401C40D4208C4074308FE001C
:1005E0004408FF0080308A110A1267268A110A1215
:1005F00083120313C400CA007F08C300C90083121A
:1006000003134508C9004608CA00FF30C507031C8C
:10061000C60349084A040319302B4708FE0048085E
:10062000FF0080308A110A1288268A110A1283126A
:100630000313C90043088312031384008313831236
:10064000031344188317490883120313800083128D
:100650000313C70A0319C80AC30A0319C40AFF2AE5
:10066000063083120313C1070318C20AB22A8A1183
:100670000A129B2E08008A150A1226208A110A12D5
:10068000D0308A110A12CC238A110A1200308A1142
:100690000A12CC238A110A128A150A1226208A11FC
:1006A0000A12D1308A110A12CC238A110A1201309F
:1006B0008A110A1229258A110A1283120313A6002D
:1006C0008A150A12A0208A110A1283120313DF006E
:1006D00001308A110A1229258A110A128312031382
:1006E000A6008A150A12A0208A110A128312031387
:1006F000DE0001308A110A1229258A110A1283129A
:100700000313A6008A150A12A0208A110A12831266
:100710000313DD0001308A110A1229258A110A12F9
:1007200083120313D90001308A110A1229258A1174
:100730000A1283120313A6008A150A12A0208A1136
:100740000A1283120313DA0001308A110A122925D2
:100750008A110A1283120313A6008A150A12A02016
:100760008A110A1283120313DB0000308A110A1265
:1007700029258A110A1283120313A6008A150A1268
:10078000A0208A110A1283120313DC008A110A12B4
:10079000E8278A110A12080083120313A200A3019A
:1007A0008312031322088039031D0130A500250C94
:1007B0000318DD2B831203130610031CE22B831294
:1007C0000313061405308A150A12F6208A110A123C
:1007D0008312031386140A308A150A12F6208A112E
:1007E0000A1283120313861005308A150A12F620A6
:1007F0008A110A12031083120313A20DA30A0830F0
:100800002302031CD02B83160313061405308A150C
:100810000A12F6208A110A12831203138614053075
:100820008A150A12F6208A110A1283120313A201F2
:1008300083120313061C1F2C83120313A20A8312B4
:100840000313220803190130A30005308A150A1288
:10085000F6208A110A1283120313861005308A15B6
:100860000A12F6208A110A12831603130610831245
:100870000313061005308A150A12F6208A110A128F
:1008800083120313230808008A150A1226208A11EE
:100890000A12D0308A110A12CC238A110A120030AF
:1008A0008A110A12CC238A110A1200308A110A1204
:1008B000CC238A110A12831203135E088A150A12C6
:1008C00047208A110A1283120313A6008A110A1202
:1008D000CC238A110A12831203135D088A150A12A7
:1008E00047208A110A1283120313A6008A110A12E2
:1008F000CC238A110A128312031359088A110A128F
:10090000CC238A110A12831203135A088A150A1279
:1009100047208A110A1283120313A6008A110A12B1
:10092000CC238A110A12831203135B088A150A1258
:1009300047208A110A1283120313A6008A110A1291
:10094000CC238A110A12831203135C088A150A1237
:1009500047208A110A1283120313A6008A110A1271
:10096000CC238A110A128A110A12E8278A110A1264
:1009700008000030FF0001308A150A1284208A1115
:100980000A12831203135A088A110A1294278A1131
:100990000A122F308A150A12CC208A110A128312E9
:1009A00003135B088A110A1294278A110A122F3046
:1009B0008A150A12CC208A110A12831203135C08CA
:1009C0008A110A1294278A110A120930831203131A
:1009D000B3002630B2008030B4003208FE00330885
:1009E000FF0034088A110A12C0278A110A128A11DC
:1009F0000A12F7218A110A120130FF0001308A150C
:100A00000A1284208A110A12831203135D088A11C4
:100A10000A1294278A110A123A308A150A12CC2037
:100A20008A110A12831203135E088A110A1294278C
:100A30008A110A123A308A150A12CC208A110A1237
:100A4000831203135F088A110A1294278A110A126B
:100A5000080083120313A200A301831603130614D4
:100A600083120313A40105308A150A12F6208A1195
:100A70000A1283120313861405308A150A12F6200F
:100A80008A110A12031083120313A30D8312031396
:100A9000061C4D2D83120313231405308A150A12E8
:100AA000F6208A110A1283120313861005308A1564
:100AB0000A12F6208A110A1283120313A40A0830BC
:100AC0002402031C332D8316031306108312031311
:100AD0002208003003190130A400A200220C0318E0
:100AE000742D831203130610031C792D8312031334
:100AF000061405308A150A12F6208A110A1283128A
:100B0000031386140A308A150A12F6208A110A1273
:100B100083120313861005308A150A12F6208A11F3
:100B20000A12831203132308080083160313061204
:100B300086120613861306118611C830FF00003096
:100B40008A150A1200208A110A1283120313061151
:100B500086111E30FF0000308A150A1200208A110B
:100B60000A1230308A110A12F8258A110A12053049
:100B7000FF0000308A150A1200208A110A12303054
:100B80008A110A12F8258A110A120130FF0000307A
:100B90008A150A1200208A110A1230308A110A12AC
:100BA000F8258A110A1220308A110A12F8258A11B2
:100BB0000A1228308A150A12DB208A110A1208301C
:100BC0008A150A12DB208A110A1206308A150A12C7
:100BD000DB208A110A120C308A150A12DB208A11D6
:100BE0000A1201308A150A12DB208A110A12080043
:100BF00083120313A6001039031D0130A700A800BB
:100C0000280C0318062E831203130612031C0B2E46
:100C10008312031306168312031326082039031DBB
:100C20000130A700A800280C0318192E8312031303
:100C30008612031C1E2E83120313861683120313BF
:100C400026084039031D0130A700A800280C03180E
:100C50002C2E831203130613031C312E831203134D
:100C600006178312031326088039031D0130A700DD
:100C7000A600260C03183F2E831203138613031CB1
:100C8000442E831203138617831203138615013033
:100C9000FF0000308A150A1200208A110A128312FE
:100CA000031386110130FF0000308A150A1200205C
:100CB0008A110A120800003A03195F2E08007E0804
:100CC000840083137F1883177D0880000800003A92
:100CD00003196F2E803A0319792EFF0100347E0824
:100CE000840083137F1883170008FF00840A00081C
:100CF00008008A110A129626FD00FE0FFF03FF0A64
:100D00008A110A129626FC007D08FF007C08080064
:100D1000003A03198F2E803A0319962E00347E086C
:100D2000840083137F188317000808007F088A0057
:100D30007E08820008008A110A1236278A110A12D8
:100D4000831203130519BF2E013083120313E00031
:100D5000831203130519B52E0A30FF0000308A15DF
:100D60000A1200208A110A12A82E8A110A121221D0
:100D70008A110A128A110A1244248A110A128A114B
:100D80000A123B238A110A128A110A12B9248A1103
:100D90000A12831203138519C92E831203138519AE
:100DA000A02ECD2E0800831203135B08023A031D08
:100DB000EF2E8A150A12EA208A110A1283120313EF
:100DC000A20022080319E72E1D30A200EB2E1C30D2
:100DD00083120313A200831203132208042F831229
:100DE00003135B08043A0319012F5B08063A031941
:100DF000012F5B08093A0319012F5B080B3A031D09
:100E0000032F1E30042F1F30080083120313D0005D
:100E10007F08D100D2010130D3005108031D122FE9
:100E2000FF30352F831203135108D400D41B1D2F1C
:100E30000310D10D0310D30D122F003083120313B2
:100E400053040319322F51085002031C2B2F53084F
:100E5000D2075108D002031083120313D10C0310E0
:100E6000D30C1D2F8312031352080800073083167A
:100E700003139F00831203139F018B138316031325
:100E800005148514051585158A150A1226208A1160
:100E90000A12D0308A110A12CC238A110A120730A2
:100EA0008A110A12CC238A110A1290308A110A126E
:100EB000CC238A110A128A110A12E8278A110A120F
:100EC0008A110A1295258A110A1208008312031347
:100ED000D5007F08D6005608031D702FFF30932FD2
:100EE000013083120313D700831203135608D8006E
:100EF000D81B7E2F0310D60DD70A742F0030831213
:100F0000031357040319902F56085502031C8A2F08
:100F10005608D502031083120313D60CD7037E2F75
:100F2000831203135508080083120313AB000A3021
:100F3000FF002B088A110A1205278A110A12831250
:100F40000313AC003030AC072C088A150A12CC20F1
:100F50008A110A120A30FF00831203132B088A1128
:100F60000A1266278A110A1283120313AC0030306A
:100F70002C07AB008A150A12CC208A110A1208002D
:100F800083120313AB007F08AC007E08AD00831210
:100F900003132D08FE002C08FF002B088A110A12EB
:100FA00088268A110A1283120313AE002E08031931
:100FB000E72F2E088A150A12CC208A110A128312F2
:100FC0000313AD0A0319AC0A0319AB0AC72F0800B3
:100FD00083120313061005308A150A12F6208A11AF
:100FE0000A1283120313861405308A150A12F6209A
:0E0FF0008A110A12831203130614080000343B
:1010000083120313A1007F08A0008312031320089A
:10101000A2002108A300FF30A007031CA10322089F
:101020002304031925283D30A200A30183120313D2
:101030002208A4002308A500FF30A207031CA30375
:101040002408250403190528162808008312031311
:1010500006148614831603138610061005308A15AD
:101060000A12F6208A150A1283120313061005309D
:101070008A150A12F6208A150A12831203138610A3
:1010800005308A150A12F6208A150A120800831202
:101090000313A1000A30FF0021088A110A12052754
:1010A0008A150A1283120313A000200EF039A20041
:1010B0000A30FF0021088A110A1266278A150A12CF
:1010C00083120313A0002204A1000800831203135B
:1010D000CB007F08CC00CD010830CE008312031373
:1010E0004B1C74284C08CD07031083120313CB0C40
:1010F00003104C0DCF00CC004E03CF00CE004F08A4
:10110000031D6E284D08080083120313AB007F08EF
:10111000AC002C08031D952880302B07AC008A15E5
:101120000A12DB208A150A129F28C030831203138B
:10113000AB072B088A150A12DB208A150A12080051
:1011400083120313A100F0302105A000200E0F39F7
:10115000A2000A30FF0022088A150A1266208A15AA
:101160000A1283120313A0000F30A1052108A00763
:101170002008080083120313A9008A110A12F82517
:101180008A150A1283120313290EF0398A110A12E2
:10119000F8258A150A12080083120313AA00831285
:1011A00003130615831203132A088A150A12BA209C
:1011B0008A150A12080083120313AA00831203136C
:1011C0000611831203132A088A150A12BA208A15F7
:1011D0000A1208000330831203135C058312031301
:1011E000A100210800300319013008008312031305
:1011F000A100831203132108A000A1032008031DEE
:10120000F928080001340034FE3407346134003416
:101210000134003444344F344D3400344C345534AC
:101220004E3400344D344134523400344D3449345A
:10123000453400344A345534453400345634493446
:1012400045340034533441344234003420342034A3
:041250002034003412
:02400E00F23F7F
:00000001FF
