:020000040000FA
:100000000000022821309A0001309B00803000005F
:1000100000009E2000000000831200009D001B08CD
:100020009C0023309E0001309F00831200001C08BA
:10003000A0001D08A100FF309C07031C9D032008A1
:10004000210403199A2804301E07A000A101A10D64
:100050001F08A10720089A0021089B00803000009B
:1000600000009E200000000083120000A3001B0877
:10007000A2001E089A001F089B00803000000000AC
:100080009E200000000083120000A500A1001B08B4
:10009000A400A00002301E07A000A101A10D1F08AE
:1000A000A10720089A0021089B0080300000000072
:1000B0009E200000000083120000A100A7001B0882
:1000C000A000A600831200002208A6002308A700B3
:1000D000FF30A207031CA303260827040319932853
:1000E00024089A0025089B00803000000000BF20F3
:1000F0000000000083120000A600200883120313F2
:1001000084008313831200002118831726088312AA
:100110000313800083120000A40A0319A50AA00A91
:100120000319A10A62280630831200009E070318F3
:100130009F0A15280000000018290800003A03193A
:10014000A628803A0319B0289B0100341A088400BD
:1001500083131B18831700089B00840A00080800FB
:1001600000000000CD2099009A0F9B039B0A00001D
:100170000000CD20980019089B0018080800003ADC
:100180000319C628803A0319CD2800341A088400C0
:1001900083131B188317000808001B088A001A081D
:1001A00082000800831205142C309B000130EE20E1
:1001B0008312051085142C309B000130EE20831231
:1001C000851005152C309B000130EE20831205119F
:1001D00085152C309B000130EE200800A9001B087B
:1001E000A8002808AA002908AB00FF30A807031CB4
:1001F000A9032A082B04031906293230AA002A0869
:10020000AB00AA032B080319F128FF28080083126A
:10021000851105152C309B000130EE20831205114D
:1002200085142C309B000130EE20831285100800CD
:10023000F0308316850083128B13D22007211D29ED
:10024000080001340034293401342C3400340134E2
:040250000034003442
:00000001FF
