:020000040000FA
:1000000000008A110A129F2A83120313B3007F088B
:10001000B2007E08B4007D08B5007C08B8007B08FB
:10002000B7007A08B600B90134080C3A0319B90AC6
:1000300083120313051C1E288518CA280C308A1544
:100040000A1257208A110A1283120313051857281F
:10005000831203133608FE003708FF0038088A11A0
:100060000A122E268A110A1283120313BA00BA0A40
:100070003A08FD003608FE003708FF0038088A11EC
:100080000A1201268A110A12831203133A08320255
:10009000031898283308FD003608FE003708FF00D3
:1000A00038088A110A1201268A110A129828831226
:1000B00003133608FE003708FF0038088A110A12B9
:1000C0002E268A110A1283120313BA00BA033A08C1
:1000D000FD003608FE003708FF0038088A110A12B2
:1000E00001268A110A12831203133608FE0037080C
:1000F000FF0038088A110A122E268A110A1283126A
:100100000313BB0033083A02031C8A283B08FF3A5A
:10011000031D9828831203133208FD003608FE00E1
:100120003708FF0038088A110A1201268A110A12BC
:10013000831203133508FF0034088A150A120020C1
:100140008A110A128312031339080319AD288A1180
:100150000A12F7218A110A12C128831203133608E2
:10016000FE003708FF0038088A110A122E268A116D
:100170000A1283120313BA008A110A123C278A1149
:100180000A12F430FF0001308A110A1290278A11F6
:100190000A121828831203130519FC28831203136B
:1001A000E00A831203130519DE280A30FF0000302D
:1001B0008A110A1290278A110A12D1288312031376
:1001C0003608FE003708FF0038088A110A122E266A
:1001D0008A110A1283120313B30032020318FC2897
:1001E0003208FD003608FE003708FF0038088A1183
:1001F0000A1201268A110A120030831203133904ED
:10020000031DB40AB40A3508FF0034088A150A121F
:1002100000208A110A120E308A150A1257208A11FC
:100220000A1208000130FF0007308A150A12002068
:100230008A110A1200308A110A123C278A110A1206
:100240000E308A150A1257208A110A1207308312BB
:10025000031360020318F029831203136008013AA4
:10026000031D4C29003083120313BD005C30BC0019
:10027000BE013C08FA003D08FB000030FC000030E5
:10028000FD000730FE006330FF0000308A110A12C3
:1002900004208A110A122C29831203136008023ADF
:1002A000031D6C29003083120313BD005B30BC00BA
:1002B000BE013C08FA003D08FB000030FC000030A5
:1002C000FD000430FE000C30FF0001308A110A12DC
:1002D00004208A110A124C29831203136008033A7E
:1002E000031D90298A110A12AB268A110A12831261
:1002F0000313BC000030BE005A30BD00FA003E08B7
:10030000FB000030FC000030FD000130FE003C0826
:10031000FF0001308A110A1204208A110A126C2986
:10032000831203136008043A031DB02900308312BE
:100330000313BD005D30BC00BE013C08FA003D085F
:10034000FB000030FC000130FD000130FE001730E2
:10035000FF0000308A110A1204208A110A12902923
:10036000831203136008053A031DD029003083125D
:100370000313BD005E30BC00BE013C08FA003D081E
:10038000FB000030FC000130FD000430FE003B307B
:10039000FF0000308A110A1204208A110A12B029C3
:1003A000831203136008063A031D262900308312C6
:1003B0000313BD005930BC00BE013C08FA003D08E3
:1003C000FB000030FC000030FD000C30FE00073068
:1003D000FF0001308A110A1204208A110A12D02962
:1003E0000C308A150A1257208A110A1208000130AF
:1003F000831203135902031C9E2A08305902031862
:100400009E2A590383120313AF0002308312031391
:100410008A001330831203132F07031C122A83123E
:1004200003138A0A82001A2A2D2A402A532A662A8E
:10043000792A8C2A083083120313B0008030AF0071
:100440008030B1002F08FE003008FF0031088A110B
:100450000A1268278A110A129E2A0830831203138F
:10046000B0008430AF008030B1002F08FE003008AB
:10047000FF0031088A110A1268278A110A129E2A7F
:10048000083083120313B0008830AF008030B10011
:100490002F08FE003008FF0031088A110A12682771
:1004A0008A110A129E2A083083120313B0008C307E
:1004B000AF008030B1002F08FE003008FF00310887
:1004C0008A110A1268278A110A129E2A083083129A
:1004D0000313B0009030AF008030B1002F08FE0051
:1004E0003008FF0031088A110A1268278A110A129F
:1004F0009E2A083083120313B0009430AF0080307E
:10050000B1002F08FE003008FF0031088A110A12DE
:1005100068278A110A129E2A083083120313B0003A
:100520009830AF008030B1002F08FE003008FF0087
:1005300031088A110A1268278A110A1208007230DB
:10054000FE000830FF0080308A110A120D268A1141
:100550000A1283120313C0007F08BF007430C10069
:100560000830C200831203133F08C3004008C400D0
:10057000FF30BF07031CC003430844040319372B93
:1005800004304107C300C401C40D4208C407430836
:10059000FE004408FF0080308A110A120D268A11DD
:1005A0000A1283120313C6007F08C5004108FE002B
:1005B0004208FF0080308A110A120D268A110A12A1
:1005C00083120313C800C4007F08C700C3000230B1
:1005D0004107C300C401C40D4208C4074308FE001C
:1005E0004408FF0080308A110A120D268A110A126F
:1005F00083120313C400CA007F08C300C90083121A
:1006000003134508C9004608CA00FF30C507031C8C
:10061000C60349084A040319302B4708FE0048085E
:10062000FF0080308A110A122E268A110A128312C4
:100630000313C90043088312031384008313831236
:10064000031344188317490883120313800083128D
:100650000313C70A0319C80AC30A0319C40AFF2AE5
:10066000063083120313C1070318C20AB22A8A1183
:100670000A12412E08008A110A12F3278A110A125F
:10068000D0308A110A1277258A110A1200308A1195
:100690000A1277258A110A128A110A12F3278A117F
:1006A0000A12D1308A110A1277258A110A120130F2
:1006B0008A110A12C1258A110A1283120313A40097
:1006C0008A150A121C208A110A1283120313DF00F2
:1006D00001308A110A12C1258A110A1283120313EA
:1006E000A4008A150A121C208A110A12831203130D
:1006F000DE0001308A110A12C1258A110A12831202
:100700000313A4008A150A121C208A110A128312EC
:100710000313DD0001308A110A12C1258A110A1261
:1007200083120313D90001308A110A12C1258A11DC
:100730000A1283120313A4008A150A121C208A11BC
:100740000A1283120313DA0001308A110A12C1253A
:100750008A110A1283120313A4008A150A121C209C
:100760008A110A1283120313DB0000308A110A1265
:10077000C1258A110A1283120313A4008A150A12D2
:100780001C208A110A1283120313DC008A150A1234
:100790007A208A110A1208008A110A12F3278A1194
:1007A0000A12D0308A110A1277258A110A120030F3
:1007B0008A110A1277258A110A1200308A110A1248
:1007C00077258A110A12831203135E088A110A120E
:1007D000B6278A110A1283120313A4008A110A127F
:1007E00077258A110A12831203135D088A110A12EF
:1007F000B6278A110A1283120313A4008A110A125F
:1008000077258A110A128312031359088A110A12D2
:1008100077258A110A12831203135A088A110A12C1
:10082000B6278A110A1283120313A4008A110A122E
:1008300077258A110A12831203135B088A110A12A0
:10084000B6278A110A1283120313A4008A110A120E
:1008500077258A110A12831203135C088A110A127F
:10086000B6278A110A1283120313A4008A110A12EE
:1008700077258A110A128A150A127A208A110A1219
:1008800008000030FF0001308A150A1200208A118A
:100890000A12831203135A088A110A123C278A117A
:1008A0000A122F308A150A1248208A110A1283125E
:1008B00003135B088A110A123C278A110A122F308F
:1008C0008A150A1248208A110A12831203135C083F
:1008D0008A110A123C278A110A1208308312031364
:1008E000B3009C30B2008030B4003208FE00330800
:1008F000FF0034088A110A1268278A110A128A1125
:100900000A12F7218A110A120130FF0001308A15FC
:100910000A1200208A110A12831203135D088A1139
:100920000A123C278A110A123A308A150A12482004
:100930008A110A12831203135E088A110A123C27D5
:100940008A110A123A308A150A1248208A110A12AC
:10095000831203135F088A110A123C278A110A12B4
:100960000800831603130612861206138613061157
:100970008611C830FF0000308A110A1290278A11B0
:100980000A1283120313061186111E30FF00003075
:100990008A110A1290278A110A1230308A110A121B
:1009A00014258A110A120530FF0000308A110A123C
:1009B00090278A110A1230308A110A1214258A11DE
:1009C0000A120130FF0000308A110A1290278A11A2
:1009D0000A1230308A110A1214258A110A122030A4
:1009E0008A110A1214258A110A1228308A150A124D
:1009F00057208A110A1208308A150A1257208A11C4
:100A00000A1206308A150A1257208A110A120C306F
:100A10008A150A1257208A110A1201308A150A1201
:100A200057208A110A12080083120313A6001039F6
:100A3000031D0130A700A800280C0318222D8312E3
:100A400003130612031C272D8312031306168312A9
:100A5000031326082039031D0130A700A800280C25
:100A60000318352D831203138612031C3A2D8312AB
:100A7000031386168312031326084039031D013021
:100A8000A700A800280C0318482D8312031306138F
:100A9000031C4D2D8312031306178312031326081C
:100AA0008039031D0130A700A600260C03185B2D1A
:100AB000831203138613031C602D831203138617FE
:100AC0008312031386150130FF0000308A110A12C9
:100AD00090278A110A128312031386110130FF0036
:100AE00000308A110A1290278A110A120800831214
:100AF0000313A100A0018312031321088039031DF1
:100B00000130A300230C0318882D83120313061051
:100B1000031C8D2D831203130614831203138614F2
:100B2000031083120313A10D831203138610831283
:100B30000313A00A08302002031C7B2D8316031325
:100B4000061483120313861483120313A101831264
:100B50000313061CAE2D83120313A10A8312031381
:100B6000210803190130A000831203138610831695
:100B700003130610831203130610831203132008B5
:100B8000080083120313A100A001831603130614A7
:100B900083120313A201831203138614031083121A
:100BA0000313A00D83120313061CD92D8312031304
:100BB000201483120313861083120313A20A083031
:100BC0002202031CCB2D831603130610831203137A
:100BD0002108003003190130A200A100210C0318E4
:100BE000F42D831203130610031CF92D8312031333
:100BF000061483120313861486108312031320082D
:100C00000800003A0319052E08007E0884008313AB
:100C10007F1883177D0880000800003A0319152EFD
:100C2000803A03191F2EFF0100347E0884008313CD
:100C30007F1883170008FF00840A000808008A1143
:100C40000A123C26FD00FE0FFF03FF0A8A110A125A
:100C50003C26FC007D08FF007C080800003A0319D0
:100C6000352E803A03193C2E00347E08840083130D
:100C70007F188317000808007F088A007E0882001A
:100C800008008A110A1279268A110A1283120313A4
:100C90000519652E013083120313E000831203133C
:100CA00005195B2E0A30FF0000308A110A129027C6
:100CB0008A110A124E2E8A110A1212218A110A1260
:100CC0008A110A12CC238A110A128A110A123B23B2
:100CD0008A110A128A110A1241248A110A128312F5
:100CE000031385196F2E831203138519462E732E55
:100CF00008000730831603139C0006309F00831200
:100D000003139F018B138316031305148514051514
:100D100085158A110A12F3278A110A12D0308A1116
:100D20000A1277258A110A1207308A110A127725CA
:100D30008A110A1290308A110A1277258A110A1232
:100D40008A150A127A208A110A128A110A12B1240B
:100D50008A110A120800831203135B08023A031D6A
:100D6000C72E8A150A1266208A110A1283120313EB
:100D7000A20022080319BF2E1D30A200C32E1C3072
:100D800083120313A200831203132208DC2E8312A2
:100D900003135B08043A0319D92E5B08063A0319BA
:100DA000D92E5B08093A0319D92E5B080B3A031DAB
:100DB000DB2E1E30DC2E1F30080083120313D00000
:100DC0007F08D100D2010130D3005108031DEA2E63
:100DD000FF300D2F831203135108D400D41BF52EBE
:100DE0000310D10D0310D30DEA2E0030831203132C
:100DF000530403190A2F51085002031C032F5308F0
:100E0000D2075108D002031083120313D10C031030
:100E1000D30CF52E83120313520808008312031318
:100E2000D5007F08D6005608031D182FFF303B2F32
:100E3000013083120313D700831203135608D8001E
:100E4000D81B262F0310D60DD70A1C2F0030831273
:100E5000031357040319382F56085502031C322F69
:100E60005608D502031083120313D60CD703262F7E
:100E7000831203135508080083120313AB000A30D2
:100E8000FF002B088A110A12DD268A110A1283122A
:100E90000313AC003030AC072C088A150A12482026
:100EA0008A110A120A30FF00831203132B088A11D9
:100EB0000A120E278A110A1283120313AC00303073
:100EC0002C07AB008A150A1248208A110A12080062
:100ED00083120313AB007F08AC007E08AD008312C1
:100EE00003132D08FE002C08FF002B088A110A129C
:100EF0002E268A110A1283120313AE002E0803193C
:100F00008F2F2E088A150A1248208A110A1283127E
:100F10000313AD0A0319AC0A0319AB0A6F2F0800BB
:100F200083120313A1007F08A0008312031320087B
:100F3000A2002108A300FF30A007031CA103220880
:100F400023040319B52F3D30A200A301831203131C
:100F50002208A4002308A500FF30A207031CA30356
:100F6000240825040319952FA62F080083120313C4
:100F7000A1000A30FF0021088A110A12DD268A1119
:100F80000A1283120313A000200EF039A2000A30C7
:100F9000FF0021088A110A120E278A110A128312F1
:100FA0000313A0002204A100080083120313CB0046
:100FB0007F08CC00CD010830CE00831203134B1CF8
:100FC000E32F4C08CD07031083120313CB0C03103F
:100FD0004C0DCF00CC004E03CF00CE004F08031DB8
:100FE000DD2F4D08080083120313061486148316A0
:100FF00003138610061083120313061086100800D0
:1010000083120313AB007F08AC002C08031D1128CA
:1010100080302B07AC008A150A1257208A150A1255
:101020001B28C03083120313AB072B088A150A1242
:1010300057208A150A12080083120313A100F0300A
:101040002105A000200E0F39A2000A30FF0022085F
:101050008A110A12D5278A150A1283120313A000D7
:101060000F30A1052108A0072008080083120313F0
:10107000A9008A110A1214258A150A128312031371
:10108000290EF0398A110A1214258A150A1208004D
:1010900083120313AA00831203130615831203138A
:1010A0002A088A150A1236208A150A1208008312A5
:1010B0000313AA00831203130611831203132A08D1
:1010C0008A150A1236208A150A1208000330831284
:1010D00003135C0583120313A100210800300319D8
:1010E0000130080001340034A03408346134003485
:1010F000013400348312031306108614061408000A
:1011000044344F344D3400344C3455344E34003470
:101110004D344134523400344D3449344534003474
:101120004A34553445340034563449344534003457
:1011300053344134423400342034203420340034D9
:02114000003479
:02400E00F23F7F
:00000001FF
